:1000000000308A007C2800002B3084008313000815
:10001000031917280230F800F701F70B0D28F80B29
:100020000C289730F700F70B1328800B0A280034B0
:1000300006148610061586112608A700A70AA7032E
:1000400003192628FF30AB0004201F282508AB0029
:1000500004200034A708031D3F2806118611290833
:10006000AA00AA0AAA0303193928FF30AB0004200A
:1000700032282808AB0004200615861150280610E7
:1000800086102908AA00AA0AAA0303194B28FF30E0
:10009000AB00042044282808AB0004200614861076
:1000A0000034061586110130A7002608A90025088E
:1000B000A8002A208A110A12D22806148610A70145
:1000C0002608A9002508A8002A208A110A12DB2880
:1000D00086140610861506112608A700A70AA7038E
:1000E00003197628FF30AB0004206F282508AB00E9
:1000F00004208A110A12E128840183131F3083052A
:10010000713083168F000F0803170908C039890062
:1001100003131F129F1200300317880083128701F8
:10012000880189018316031305148312A1010518A0
:10013000A10A831685148312A2018518A20A8316C8
:1001400005158312A3010519A30A831685158312C9
:10015000A4018519A40AA108031DBB28220BBB28F2
:10016000230BBB28A408031DBB280330A600E830DE
:10017000A5001820E128210BCA28220BCA28230B2E
:10018000CA28A408031DCA280330A600E830A50029
:100190001820E128A208031DD3280330A600E83068
:1001A000A5005128E128A308031DDC280330A60080
:1001B000E830A5005D28E1280330A600E830A5005E
:1001C00068280230A500FA30AB000420A50BE32814
:0601D000031792286300F2
:04400E00F42FFF3F4D
:00000001FF
;PIC16F887
